:100000000C9434000C9451000C9451000C94510049
:100010000C9451000C9451000C9451000C9451001C
:100020000C9451000C9451000C9451000C9451000C
:100030000C9451000C9451000C9451000C945100FC
:100040000C9451000C9451000C9481000C945100BC
:100050000C9451000C9451000C9451000C945100DC
:100060000C9451000C94510011241FBECFEFD8E026
:10007000DEBFCDBF12E0A0E0B1E0EEEEFFE002C0D7
:1000800005900D92A036B107D9F713E0A0E6B2E0D3
:1000900001C01D92A23BB107E1F70E949A040C94A3
:1000A000F5070C940000E0ECF0E020812260208352
:1000B000E1ECF0E0208128692083E2ECF0E020818F
:1000C000266420838093C4009093C5000895809196
:1000D000C00087FFFCCF8091C60008958093C600C2
:1000E0008091C00085FFFCCF0895CF93DF93EC0192
:1000F0008991882319F00E946E00FACFDF91CF9189
:1001000008951F920F920FB60F9211242F938F9381
:100110009F93EF93FF932FB7F894E0910603F0912C
:1001200007038091C600E05AFD4F8083809106034B
:1001300090910703019690930703809306038091A3
:10014000060390910703803A910541F4109207034A
:100150001092060310920503109204032FBFFF9123
:10016000EF919F918F912F910F900FBE0F901F9045
:1001700018952F923F924F925F926F927F928F923B
:100180009F92AF92BF92CF92DF92EF92FF920F9326
:100190001F93CF93DF93CDB7DEB72C970FB6F894AC
:1001A000DEBF0FBECDBF9A8389838DB79EB79E8376
:1001B0008D83E981FA8101900020E9F78F010150D8
:1001C000110989819A81081B190B1127EDB7FEB718
:1001D000E01BF10B0FB6F894FEBF0FBEEDBF8DB75D
:1001E0009EB701961C01C12CD12C7601980121509B
:1001F0003109FC013196F887EF83820F931F9A87AC
:1002000089878091000390910103A0910203B0912E
:100210000303805F984DAF4FBF4FC816D906EA065B
:10022000FB0650F01092000310920103109202039B
:100230001092030382E060C080910803843011F4BF
:1002400010920803E0E6F2E001900020E9F7319710
:10025000E056F2402F01612C712C411451046104CD
:10026000710409F471C0E3E3F7E03197F1F7FFEFB0
:10027000CF1ADF0AEF0AFF0AE0E6F2E00190002061
:10028000E9F73197E056F240CF01A0E0B0E0481620
:1002900059066A067B0609F057C080E692E09C8307
:1002A0008B83812C912C5401A9016F817885C10128
:1002B0002B873C870E94D404EB81FC818191FC83D5
:1002C000EB83E985FA858083A80169817A81C10180
:1002D0000E94ED04FFEF8F1A9F0AAF0ABF0A2B8519
:1002E0003C85892B59F5109200031092010310925E
:1002F00002031092030381E080930803ED81FE81E5
:100300000FB6F894FEBF0FBEEDBF2C960FB6F89453
:10031000DEBF0FBECDBFDF91CF911F910F91FF9038
:10032000EF90DF90CF90BF90AF909F908F907F9095
:100330006F905F904F903F902F9008958414950494
:10034000A604B70408F4B0CF83E397E00197F1F770
:100350009FEFC91AD90AE90AF90A53CF80EAE0E601
:10036000F2E0DF011D928A95E9F7109207031092DF
:10037000060310920503109204030895CF93DF93B0
:10038000EC0184E080930803CE010E94B9008091C3
:1003900008038823C9F3DF91CF910895CF92DF92AC
:1003A000EF92FF920F931F93CF93DF9300D000D073
:1003B0001F92CDB7DEB77C01BC01645F7F4FFB01AC
:1003C0006F01CE18DF0881918D30D1F7A6014C5016
:1003D0005109CE0101960E94FB04F7010190002013
:1003E000E9F78F01015011090E191F09B6016E5F5F
:1003F0007F4F061B170B6E0D7F1DA801C7010E94C2
:10040000CB04065011090E0D1F1D46E050E060E0C0
:1004100071E0C8010E94ED04892B41F4A601485FF8
:100420005F4F60E070E0C8010E94E6040F900F90FB
:100430000F900F900F90DF91CF911F910F91FF9030
:10044000EF90DF90CF9008950E94BE0181E09091DF
:100450000803923009F480E008950F931F93CF931F
:10046000DF9300D0CDB7DEB78B0189839A830E94DA
:10047000AE0189819A810E94750088E691E00E9410
:100480007500C8010F900F90DF91CF911F910F91D0
:100490000C9424020F931F93CF93DF93CDB7DEB755
:1004A00064970FB6F894DEBF0FBECDBF8E010F5F0D
:1004B0001F4F94E1F80111929A95E9F71F928F93DB
:1004C00087E091E09F938F931F930F930E942405E1
:1004D0001C8A60E071E0C8010E942D020F900F900D
:1004E0000F900F900F900F9064960FB6F894DEBFA8
:1004F0000FBECDBFDF91CF911F910F9108950F9344
:100500001F93CF93DF93CDB7DEB764970FB6F89400
:10051000DEBF0FBECDBF8E010F5F1F4F94E1F8010C
:1005200011929A95E9F71F928F9385E191E09F933D
:100530008F931F930F930E9424051C8A60E071E043
:10054000C8010E942D020F900F900F900F900F90F6
:100550000F9064960FB6F894DEBF0FBECDBFDF914B
:10056000CF911F910F910895CF93C5E060E071E0A6
:1005700082E291E00E942D02882311F081E00AC0FE
:1005800060E071E087E291E00E942D028111F6CFD8
:10059000C15061F7CF91089560E071E08AE291E087
:1005A0000C942D020F931F93CF93DF93CDB7DEB73B
:1005B00064970FB6F894DEBF0FBECDBF8E010F5FFC
:1005C0001F4F94E1F80111929A95E9F71F928F93CA
:1005D00088E391E09F938F931F930F930E942405CC
:1005E0001C8A60E071E0C8010E942D020F900F90FC
:1005F0000F900F900F900F9064960FB6F894DEBF97
:100600000FBECDBFDF91CF911F910F9108950F9332
:100610001F93CF93DF93CDB7DEB7EC970FB6F89467
:10062000DEBF0FBECDBF8E010F5F1F4F2CE3F80161
:1006300011922A95E9F77F936F939F938F9385E4A7
:1006400091E09F938F931F930F930E9424051CAEFC
:1006500068E571E0C8010E942D020FB6F894DEBF74
:100660000FBECDBF811122C06BE671E080E692E043
:100670000E940A05892BE1F464E771E080E692E0CC
:100680000E940A05892BB1F46DE771E080E692E0E3
:100690000E940A05892B81F466E871E080E692E009
:1006A0000E940A05892B51F084E009C080E007C050
:1006B00081E005C082E003C083E001C085E0EC96E4
:1006C0000FB6F894DEBF0FBECDBFDF91CF911F9163
:1006D0000F91089560E071E08FE891E00E942D0293
:1006E0006CE971E080E692E00E940A05892BD1F462
:1006F00065EA71E080E692E00E940A05892BA1F488
:100700006EEA71E080E692E00E940A05892B71F49E
:1007100067EB71E080E692E00E940A05892B41F0C8
:1007200083E0089580E0089581E0089582E00895CF
:1007300084E00895DF92EF92FF920F931F93CF937F
:10074000DF93CDB7DEB7EE970FB6F894DEBF0FBEDE
:10075000CDBFD82EF62EE72E8E010F5F1F4F8CE3F4
:10076000F80111928A95E9F760EC71E089EC91E06B
:100770004DAF5EAF0E942D024DAD5EAD882369F096
:100780005F934F93EF92FF9284ED91E09F938F934D
:100790001F930F930E9424050EC05F934F93EF9217
:1007A000FF921F92DF928EEE91E09F938F931F93A3
:1007B0000F930E9424050FB6F894DEBF0FBECDBF85
:1007C0006DE072E0C8010E942D02811106C0809187
:1007D0000803823019F085E001C081E0EE960FB683
:1007E000F894DEBF0FBECDBFDF91CF911F910F9167
:1007F000FF90EF90DF900895EF92FF920F931F9379
:10080000CF93DF93CDB7DEB764970FB6F894DEBF12
:100810000FBECDBF7C018E010F5F1F4F84E1F80139
:1008200011928A95E9F7F70101900020E9F7EE1996
:10083000FF093196FF93EF9387E192E09F938F93A7
:100840001F930F930E9424051C8A65E272E0C80181
:100850000E942D026DE272E0C7010E942D020F90EE
:100860000F900F900F900F900F90811106C0809104
:100870000803823019F085E001C081E064960FB66C
:10088000F894DEBF0FBECDBFDF91CF911F910F91C6
:10089000FF90EF90089580910603909107032091B7
:1008A000040330910503821B930B089520910403E8
:1008B00030910503809106039091070328173907AB
:1008C00084F480910403909105039C012F5F3F4FB6
:1008D0003093050320930403FC01E05AFD4F80810F
:1008E00008950E94AE0180E00895EF92FF920F9369
:1008F0001F93CF93DF938C012FEF8FE392E0215072
:1009000080409040E1F700C00000E8017E01E01A5D
:10091000F10A0E944B041816190624F40E9456048A
:100920008993F4CFC701DF91CF911F910F91FF9071
:10093000EF90089587E090E00E94530078940E9421
:10094000B4028823E1F383E00E94D20280E00E9497
:100950007F0280E00E944A020E946A03833031F4E1
:100960006AE671E089E392E00E9407034CE452E0FA
:100970006FE472E080E00E949A030E946A03833071
:1009800039F46AE671E089E392E00E940703F5CF4B
:10099000823099F7EBCFFB01DC0102C001900D9290
:1009A00041505040D8F708956817790768F4FB0163
:1009B000DC01E40FF51FA40FB51F02C002900E92D8
:1009C00041505040D8F708950C94CB04DC0101C08D
:1009D0006D9341505040E0F70895FB01DC01415018
:1009E000504030F08D910190801919F40020B9F732
:1009F000881B990B0895FB01DC014150504048F0E1
:100A000001900D920020C9F701C01D924150504045
:100A1000E0F70895FB0151915523A9F0BF01DC01D6
:100A20004D9145174111E1F759F4CD010190002096
:100A300049F04D9140154111C9F3FB014111EFCF30
:100A400081E090E001970895AEE0B0E0EAE2F5E0E1
:100A50000C94CC070D891E8986E08C831A83098348
:100A60008FEF9FE79E838D83AE01475E5F4F6F8957
:100A7000788DCE0101960E944605EF81F885E00F42
:100A8000F11F10822E96E4E00C94E807ACE0B0E091
:100A9000ECE4F5E00C94BE077C016B018A01FC01DB
:100AA00017821682838181FFBDC1CE0101964C0160
:100AB000F7019381F60193FD859193FF81916F0179
:100AC000882309F4ABC1853239F493FD859193FFF6
:100AD00081916F01853229F4B70190E00E942E07C1
:100AE000E7CF512C312C20E02032A0F48B3269F07A
:100AF00030F4803259F0833269F420612CC08D3299
:100B000039F0803339F4216026C02260246023C08C
:100B1000286021C027FD27C030ED380F3A3078F427
:100B200026FF06C0FAE05F9E300D1124532E13C03D
:100B30008AE0389E300D1124332E20620CC08E3294
:100B400021F426FD6BC1206406C08C3611F42068A8
:100B500002C0883641F4F60193FD859193FF81919F
:100B60006F018111C1CF982F9F7D9554933028F448
:100B70000C5F1F4FFFE3F9830DC0833631F08337DD
:100B800071F0833509F05BC022C0F8018081898350
:100B90000E5F1F4F44244394512C540115C038015B
:100BA000F2E06F0E711CF801A080B18026FF03C037
:100BB000652D70E002C06FEF7FEFC5012C870E94AA
:100BC00023072C0183012C852F77222E17C0380193
:100BD000F2E06F0E711CF801A080B18026FF03C007
:100BE000652D70E002C06FEF7FEFC5012C870E947A
:100BF00018072C012C852068222E830123FC1BC0A2
:100C0000832D90E048165906B0F4B70180E290E0D9
:100C10000E942E073A94F4CFF50127FC859127FE18
:100C200081915F01B70190E00E942E0731103A9444
:100C3000F1E04F1A51084114510471F7E5C08436B0
:100C400011F0893639F5F80127FF07C060817181FD
:100C5000828193810C5F1F4F08C06081718188275A
:100C600077FD8095982F0E5F1F4F2F76B22E97FF3E
:100C700009C090958095709561957F4F8F4F9F4FDC
:100C80002068B22E2AE030E0A4010E946007A82E5E
:100C9000A81844C0853729F42F7EB22E2AE030E010
:100CA00025C0F22FF97FBF2E8F36C1F018F488359A
:100CB00079F0B4C0803719F0883721F0AFC02F2FFA
:100CC0002061B22EB4FE0DC08B2D8460B82E09C0F9
:100CD00024FF0AC09F2F9660B92E06C028E030E09E
:100CE00005C020E130E002C020E132E0F801B7FEAB
:100CF00007C060817181828193810C5F1F4F06C0A4
:100D00006081718180E090E00E5F1F4FA4010E941E
:100D10006007A82EA818FB2DFF77BF2EB6FE0BC0CC
:100D20002B2D2E7FA51450F4B4FE0AC0B2FC08C0CF
:100D30002B2D2E7E05C07A2C2B2D03C07A2C01C0C2
:100D4000752C24FF0DC0FE01EA0DF11D808180335A
:100D500011F4297E09C022FF06C07394739404C065
:100D6000822F867809F0739423FD13C020FF06C0FC
:100D70005A2C731418F4530C5718732C731468F40A
:100D8000B70180E290E02C870E942E0773942C8597
:100D9000F5CF731410F4371801C0312C24FF12C0A2
:100DA000B70180E390E02C870E942E072C8522FF5C
:100DB00017C021FF03C088E590E002C088E790E0FB
:100DC000B7010CC0822F867859F021FD02C080E265
:100DD00001C08BE227FD8DE2B70190E00E942E0753
:100DE000A51438F4B70180E390E00E942E075A94CE
:100DF000F7CFAA94F401EA0DF11D8081B70190E0CC
:100E00000E942E07A110F5CF332009F451CEB7016F
:100E100080E290E00E942E073A94F6CFF701868197
:100E2000978102C08FEF9FEF2C96E2E10C94DA07D6
:100E3000FC010590615070400110D8F780959095A5
:100E40008E0F9F1F0895FC016150704001900110AA
:100E5000D8F7809590958E0F9F1F08950F931F933D
:100E6000CF93DF93182F092FEB018B8181FD03C0F6
:100E70008FEF9FEF20C082FF10C04E815F812C81D9
:100E80003D81421753077CF4E881F9819F012F5F70
:100E90003F4F39832883108306C0E885F985812F69
:100EA0000995892B29F72E813F812F5F3F4F3F8383
:100EB0002E83812F902FDF91CF911F910F91089555
:100EC000FA01AA27283051F1203181F1E8946F937B
:100ED0006E7F6E5F7F4F8F4F9F4FAF4FB1E03ED021
:100EE000B4E03CD0670F781F891F9A1FA11D680FBF
:100EF000791F8A1F911DA11D6A0F711D811D911DF2
:100F0000A11D20D009F468943F912AE0269F112466
:100F10003019305D3193DEF6CF010895462F4770CA
:100F2000405D4193B3E00FD0C9F7F6CF462F4F7025
:100F3000405D4A3318F0495D31FD4052419302D083
:100F4000A9F7EACFB4E0A695979587957795679529
:100F5000BA95C9F700976105710508959B01AC0129
:100F60000A2E06945795479537952795BA95C9F750
:100F7000620F731F841F951FA01D08952F923F922B
:100F80004F925F926F927F928F929F92AF92BF9299
:100F9000CF92DF92EF92FF920F931F93CF93DF9345
:100FA000CDB7DEB7CA1BDB0B0FB6F894DEBF0FBEA2
:100FB000CDBF09942A88398848885F846E847D84EF
:100FC0008C849B84AA84B984C884DF80EE80FD80F1
:100FD0000C811B81AA81B981CE0FD11D0FB6F89467
:0E0FE000DEBF0FBECDBFED010895F894FFCF28
:100FEE000D0A4F4B0D0A0041542B4349504D4F44AF
:100FFE00453D25640041542B4349504D55583D25E0
:10100E006400415445300041540041542B43495033
:10101E00434C4F53453D310041542B43574D4F44A4
:10102E00453D25640041542B43574A41503D2225EE
:10103E0073222C22257322000D0A5749464920435C
:10104E004F4E4E45435445440D0A002B43574A41DB
:10105E00503A31002B43574A41503A32002B4357F6
:10106E004A41503A33002B43574A41503A340041DB
:10107E00542B4349505354415455530053544154E7
:10108E0055533A32005354415455533A3300535446
:10109E00415455533A34005354415455533A350044
:1010AE004349504D55583A300041542B4349504D09
:1010BE0055583F0041542B43495053544152543DCF
:1010CE0022544350222C222573222C257300415486
:1010DE002B43495053544152543D222564222C2215
:1010EE00544350222C222573222C257300434F4E3D
:1010FE004E4543540D0A0041542B43495053454E1F
:10110E00443D2564000D0A4F4B0D0A3E000D0A5357
:10111E00454E44204F4B0D0A0055534320477565ED
:10112E00737420576972656C65737300383000698B
:10113E00702D6170692E636F6D2F6C696E65000086
:00000001FF
