:100000000C9434000C9451000C9451000C94510049
:100010000C9451000C9451000C9451000C9451001C
:100020000C9451000C9451000C9451000C9451000C
:100030000C9451000C9451000C9451000C945100FC
:100040000C9451000C9451000C9451000C945100EC
:100050000C9451000C9451000C9451000C945100DC
:100060000C9451000C94510011241FBECFEFD8E026
:10007000DEBFCDBF11E0A0E0B1E0E0E7FBE002C0F1
:1000800005900D92A830B107D9F711E0A8E0B1E0D2
:1000900001C01D92A038B107E1F70E948D020C94B7
:1000A000B6050C940000FC01DB01448155811496D7
:1000B0002D913C9115974217530711F081E00EC026
:1000C0004281538112962D913C91139781E0421702
:1000D000530721F4408151812D913C9142175307E0
:1000E00008F080E00895CF93DF93FC01A8E5B1E02C
:1000F00084E1ED0119928A95E9F781818F938081DE
:100100008F9383818F9382818F9385818F93848155
:100110008F9380E091E09F938F93BF93AF930E9462
:10012000E5028DB79EB70A960FB6F8949EBF0FBE34
:100130008DBF88E591E0DF91CF910895282F22951A
:100140002F708F7090E03AE0239F800D911D112455
:1001500008956AE070E00E94D1026295607F862B6C
:100160000895CF92DF92EF92FF920F931F93CF9358
:10017000DF93CCE6D1E024E1FE0111922A95E9F764
:10018000992724E1C22ED12C7E0100E010E020E06E
:1001900030E041E050E0BC0182EA0E94E500888145
:1001A000DF91CF911F910F91FF90EF90DF90CF9053
:1001B0000C949E00CF93C82FCB010E94A900482F1A
:1001C0006C2F82EACF910C94A401CF92DF92EF9230
:1001D000FF920F931F934115510521F4011511054D
:1001E00009F4A0C094EA9093BC009091BC0097FFE2
:1001F000FCCF9091B900987F983009F068C0982F93
:100200009E7F9093BB0094E89093BC009091BC00BB
:1002100097FFFCCF9091B900987F983121F09032F0
:1002200009F055C051C0FB01460F571F64E8E417A1
:10023000F50791F091919093BB006093BC00909171
:10024000BC0097FFFCCF9091B900987F983279F36A
:100250009033E9F590E338C0F901020F131F24E849
:10026000E017F10779F091919093BB002093BC00C7
:100270009091BC0097FFFCCF9091B900987F983285
:1002800079F3E6CFC114D10409F44AC020E194EA1D
:100290009093BC009091BC0097FFFCCF9091B90067
:1002A000987F921314C081608093BB0084E8809390
:1002B000BC008091BC0087FFFCCF9091B900987F73
:1002C000903439F0983419F484E98093BC00892F74
:1002D0002FC0F70184EC91E0C916D10491F080930E
:1002E000BC009091BC0097FFFCCF9091B900987F23
:1002F00021E0C21AD108903551F79091BB0091933B
:10030000EACF84E88093BC008091BC0087FFFCCFDB
:100310009091B900987F9835D1F68091BB00808389
:1003200090E0D2CFC114D10411F028E0B0CF80E02A
:100330001F910F91FF90EF90DF90CF900895109252
:10034000B9008093B8000895CF92DF92EF92FF92A8
:100350000F931F93CF93DF9300D0CDB7DEB76983A0
:100360004A83C12CD12CE12CF12C00E010E020E0DC
:1003700030E042E050E0BE016F5F7F4F0E94E50039
:100380000F900F90DF91CF911F910F91FF90EF9001
:10039000DF90CF900895CF92DF92EF92FF920F936C
:1003A0001F93CF93DF931F92CDB7DEB7F82EE42EC5
:1003B0008B016A018C2D8E19821760F4F601419130
:1003C0006F01F80161918F018F2D29830E94A40193
:1003D0002981F0CF0F90DF91CF911F910F91FF9066
:1003E000EF90DF90CF9008955F982C982B982A98E3
:1003F00087FD5F9A86FD2C9A85FD2B9A84FD2A9AAB
:100400002998299A299A29980895CF93C82F0E944C
:10041000F4018C2F8295807FCF910C94F401289861
:100420000E94050286E69EE00197F1F7000008951C
:1004300090E4899F600D1124862F80680C940F0230
:10044000289A0E94050286E69EE00197F1F70000D7
:100450000895CF93DF93FC018491EF0121968823C7
:1004600021F00E942002FE01F7CFDF91CF91089585
:10047000CF93DF93EC018991882319F00E94200229
:10048000FACFDF91CF910895579A249A239A229A0E
:10049000209A219A289829988FEF9BE60197F1F7E7
:1004A00000C0000080E30E94F4018FEF93E2019707
:1004B000F1F700C0000080E30E94F4018DED90E0B0
:1004C0000197F1F780E30E94F40186E69EE0019730
:1004D000F1F7000088E20E94F40186E69EE00197B1
:1004E000F1F7000088E20E940F0280E80E940F02EC
:1004F00081E00E940F028FEF9FE80197F1F700C0A3
:1005000000008CE00E940F028FE00C940F0286E640
:100510009EE00197F1F700000895CF93DF9300D09C
:1005200000D000D0CDB7DEB70E94440260E080E08A
:100530000E9418028AE20E949F0167E270E082E056
:1005400090E00E94DA0064E070E083E090E00E94B6
:10055000DA006EE070E084E090E00E94DA002FEFB5
:100560008FEF90EE215080409040E1F700C00000F6
:1005700082E090E00E94B1009A83898383E090E05A
:100580000E94B1009C838B8384E090E00E94B100C4
:100590009E838D83CE0101960E9473000E942902E2
:1005A000FFCFAA1BBB1B51E107C0AA1FBB1FA61789
:1005B000B70710F0A61BB70B881F991F5A95A9F70C
:1005C00080959095BC01CD010895AEE0B0E0EBEED2
:1005D000F2E00C948D050D891E8986E08C831A83C8
:1005E00009838FEF9FE79E838D83AE01475E5F4F48
:1005F0006F89788DCE0101960E940703EF81F885FF
:10060000E00FF11F10822E96E4E00C94A905ACE0F7
:10061000B0E0EDE0F3E00C947F057C016B018A0112
:10062000FC0117821682838181FFBDC1CE01019634
:100630004C01F7019381F60193FD859193FF819120
:100640006F01882309F4ABC1853239F493FD85919C
:1006500093FF81916F01853229F4B70190E00E94E8
:10066000EF04E7CF512C312C20E02032A0F48B3264
:1006700069F030F4803259F0833269F420612CC083
:100680008D3239F0803339F4216026C02260246035
:1006900023C0286021C027FD27C030ED380F3A3035
:1006A00078F426FF06C0FAE05F9E300D1124532E29
:1006B00013C08AE0389E300D1124332E20620CC006
:1006C0008E3221F426FD6BC1206406C08C3611F4F5
:1006D000206802C0883641F4F60193FD859193FFAE
:1006E00081916F018111C1CF982F9F7D95549330D7
:1006F00028F40C5F1F4FFFE3F9830DC0833631F000
:10070000833771F0833509F05BC022C0F801808126
:1007100089830E5F1F4F44244394512C540115C00C
:100720003801F2E06F0E711CF801A080B18026FF45
:1007300003C0652D70E002C06FEF7FEFC5012C870D
:100740000E94E4042C0183012C852F77222E17C0F0
:100750003801F2E06F0E711CF801A080B18026FF15
:1007600003C0652D70E002C06FEF7FEFC5012C87DD
:100770000E94D9042C012C852068222E830123FCA1
:100780001BC0832D90E048165906B0F4B70180E2F3
:1007900090E00E94EF043A94F4CFF50127FC859194
:1007A00027FE81915F01B70190E00E94EF043110B4
:1007B0003A94F1E04F1A51084114510471F7E5C021
:1007C000843611F0893639F5F80127FF07C06081BA
:1007D0007181828193810C5F1F4F08C0608171819C
:1007E000882777FD8095982F0E5F1F4F2F76B22EAA
:1007F00097FF09C090958095709561957F4F8F4FB9
:100800009F4F2068B22E2AE030E0A4010E9421050B
:10081000A82EA81844C0853729F42F7EB22E2AE0CE
:1008200030E025C0F22FF97FBF2E8F36C1F018F4CB
:10083000883579F0B4C0803719F0883721F0AFC01F
:100840002F2F2061B22EB4FE0DC08B2D8460B82EE8
:1008500009C024FF0AC09F2F9660B92E06C028E069
:1008600030E005C020E130E002C020E132E0F801D4
:10087000B7FE07C060817181828193810C5F1F4F39
:1008800006C06081718180E090E00E5F1F4FA4017F
:100890000E942105A82EA818FB2DFF77BF2EB6FEBB
:1008A0000BC02B2D2E7FA51450F4B4FE0AC0B2FC51
:1008B00008C02B2D2E7E05C07A2C2B2D03C07A2C40
:1008C00001C0752C24FF0DC0FE01EA0DF11D8081D1
:1008D000803311F4297E09C022FF06C073947394FB
:1008E00004C0822F867809F0739423FD13C020FF83
:1008F00006C05A2C731418F4530C5718732C731425
:1009000068F4B70180E290E02C870E94EF047394B2
:100910002C85F5CF731410F4371801C0312C24FF47
:1009200012C0B70180E390E02C870E94EF042C8571
:1009300022FF17C021FF03C088E590E002C088E7CE
:1009400090E0B7010CC0822F867859F021FD02C0DB
:1009500080E201C08BE227FD8DE2B70190E00E94AA
:10096000EF04A51438F4B70180E390E00E94EF048F
:100970005A94F7CFAA94F401EA0DF11D8081B701D2
:1009800090E00E94EF04A110F5CF332009F451CE7E
:10099000B70180E290E00E94EF043A94F6CFF701AD
:1009A0008681978102C08FEF9FEF2C96E2E10C9435
:1009B0009B05FC010590615070400110D8F78095AF
:1009C00090958E0F9F1F0895FC016150704001901B
:1009D0000110D8F7809590958E0F9F1F08950F9363
:1009E0001F93CF93DF93182F092FEB018B8181FD8C
:1009F00003C08FEF9FEF20C082FF10C04E815F8148
:100A00002C813D81421753077CF4E881F9819F01D5
:100A10002F5F3F4F39832883108306C0E885F9850F
:100A2000812F0995892B29F72E813F812F5F3F4F19
:100A30003F832E83812F902FDF91CF911F910F91B4
:100A40000895FA01AA27283051F1203181F1E89464
:100A50006F936E7F6E5F7F4F8F4F9F4FAF4FB1E0B1
:100A60003ED0B4E03CD0670F781F891F9A1FA11DAC
:100A7000680F791F8A1F911DA11D6A0F711D811DAD
:100A8000911DA11D20D009F468943F912AE0269F72
:100A900011243019305D3193DEF6CF010895462FD1
:100AA0004770405D4193B3E00FD0C9F7F6CF462FB2
:100AB0004F70405D4A3318F0495D31FD405241931B
:100AC00002D0A9F7EACFB4E0A695979587957795D8
:100AD0006795BA95C9F700976105710508959B015F
:100AE000AC010A2E06945795479537952795BA95E8
:100AF000C9F7620F731F841F951FA01D08952F92C1
:100B00003F924F925F926F927F928F929F92AF929D
:100B1000BF92CF92DF92EF92FF920F931F93CF93EA
:100B2000DF93CDB7DEB7CA1BDB0B0FB6F894DEBF81
:100B30000FBECDBF09942A88398848885F846E84A7
:100B40007D848C849B84AA84B984C884DF80EE80F1
:100B5000FD800C811B81AA81B981CE0FD11D0FB6FA
:100B6000F894DEBF0FBECDBFED010895F894FFCF1E
:080B700025643A2564256400A8
:00000001FF
