:100000000C9434000C9451000C9451000C94510049
:100010000C9451000C9451000C9451000C9451001C
:100020000C9451000C9451000C9451000C9451000C
:100030000C9451000C9451000C9451000C945100FC
:100040000C9451000C9451000C9451000C945100EC
:100050000C9451000C9451000C9451000C945100DC
:100060000C9451000C94510011241FBECFEFD8E026
:10007000DEBFCDBF11E0A0E0B1E0E2EEFCE002C0E7
:1000800005900D92A031B107D9F711E0A0E1B1E0E0
:1000900001C01D92A437B107E1F70E9453000C94F0
:1000A0006F060C940000EF92FF920F931F93DF9363
:1000B000CF93CDB7DEB7A0970FB6F894DEBF0FBED3
:1000C000CDBF389A0E94330380E060E00E940703AE
:1000D0008AE20E948E028EE090E09E838D8384E00F
:1000E00090E09C838B8387E290E09A838983CE01A2
:1000F00001960E94DA0080E29EE428EB30E0F901EC
:100100003197F1F70197D9F78E01095F1F4FC801A9
:100110000E9425018DE0E82EF12CEC0EFD1EC80199
:10012000B70144E150E00E9491018C01C7010E9497
:1001300027030630110509F4409AFFCFFC01DB01CB
:100140002481358114968D919C9115972817390734
:1001500049F42281338112968D919C91139728172F
:10016000390711F040E005C040E0208131818D91D8
:100170009C912817390708F441E0842F0895282F0F
:1001800022952F709AE0299F900111248F70280FDB
:10019000311DC9010895FC016AE070E00E947C03F2
:1001A000262F2295207FCF016AE070E00E947C0319
:1001B000822B0895CF92DF92EF92FF920F931F93BD
:1001C000DF93CF9300D000D000D0CDB7DEB77C0155
:1001D000DE011196E9E0F1E083E001900D9281509B
:1001E000E1F7F701808191810E94CB00082FF70190
:1001F000828193810E94CB00182FF7018481958121
:100200000E94CB000C831D838E8382EABE016F5F48
:100210007F4F43E050E09E012C5F3F4F03E010E032
:10022000EE24FF24CC24DD240E94D40126960FB6B0
:10023000F894DEBF0FBECDBFCF91DF911F910F911C
:10024000FF90EF90DF90CF900895AF92BF92CF9242
:10025000DF92EF92FF920F931F93DF93CF9300D023
:100260000F92CDB7DEB75C0184E1E0E6F1E0DF019B
:100270001D928A95E9F7DE011196ECE0F1E083E04A
:1002800001900D928150E1F782EABE016F5F7F4FCE
:1002900041E050E020E030E000E010E0E0E6EE2E4B
:1002A000E1E0FE2E93E0C92ED12C0E94D4012091D2
:1002B00060012F77822F82958F703AE0839FC00173
:1002C00011242F70820F911DF5019183808320915D
:1002D00061012F77822F82958F70839FC001112437
:1002E0002F70820F911D93838283209162012F735F
:1002F000822F82958F70839FC00111242F70820FEF
:10030000911D958384830F900F900F90CF91DF9173
:100310001F910F91FF90EF90DF90CF90BF90AF9023
:100320000895EF92FF920F931F938C01F62EE72E04
:10033000862F972F60E070E00E9490032DB73EB7A4
:100340002A5030400FB6F8943EBF0FBE2DBFEDB718
:10035000FEB73196ADB7BEB71196FC92E18280E050
:1003600091E093838283D80114968D919C91159787
:100370009583848312968D919C911397978386839E
:100380008D919C91918780870E9497032DB73EB7EE
:10039000265F3F4F0FB6F8943EBF0FBE2DBF1F9193
:1003A0000F91FF90EF900895CF92DF92EF92FF921E
:1003B0000F931F934115510521F40115110509F4FF
:1003C000A0C094EA9093BC009091BC0097FFFCCF32
:1003D0009091B900987F983009F068C0982F9E7F5F
:1003E0009093BB0094E89093BC009091BC0097FF61
:1003F000FCCF9091B900987F983121F0903209F0AC
:1004000055C051C0FB01460F571F64E8E417F507BC
:1004100091F091919093BB006093BC009091BC00CF
:1004200097FFFCCF9091B900987F983279F3903381
:10043000E9F590E338C0F901020F131F24E8E01733
:10044000F10779F091919093BB002093BC009091BB
:10045000BC0097FFFCCF9091B900987F983279F358
:10046000E6CFC114D10409F44AC020E194EA909384
:10047000BC009091BC0097FFFCCF9091B900987F91
:10048000921314C081608093BB0084E88093BC0009
:100490008091BC0087FFFCCF9091B900987F903489
:1004A00039F0983419F484E98093BC00892F2FC067
:1004B000F70184EC91E0C916D10491F08093BC005F
:1004C0009091BC0097FFFCCF9091B900987F21E0FC
:1004D000C21AD108903551F79091BB009193EACFA1
:1004E00084E88093BC008091BC0087FFFCCF909192
:1004F000B900987F9835D1F68091BB00808390E059
:10050000D2CFC114D10411F028E0B0CF80E01F9108
:100510000F91FF90EF90DF90CF9008951092B90067
:100520008093B8000895CF92DF92EF92FF920F93DD
:100530001F93CF93DF9300D0CDB7DEB769834A8393
:10054000C12CD12CE12CF12C00E010E020E030E0B7
:1005500042E050E0BE016F5F7F4F0E94D4010F90D8
:100560000F90DF91CF911F910F91FF90EF90DF904F
:10057000CF900895CF92DF92EF92FF920F931F9347
:10058000CF93DF931F92CDB7DEB7F82EE42E8B0109
:100590006A018C2D8E19821760F4F60141916F016A
:1005A000F80161918F018F2D29830E949302298187
:1005B000F0CF0F90DF91CF911F910F91FF90EF90AF
:1005C000DF90CF9008955F982C982B982A9887FDFC
:1005D0005F9A86FD2C9A85FD2B9A84FD2A9A29988C
:1005E000299A299A29980895CF93C82F0E94E30247
:1005F0008C2F8295807FCF910C94E30228980E94E3
:10060000F40286E69EE00197F1F70000089590E479
:10061000899F600D1124862F80680C94FE02289A11
:100620000E94F40286E69EE00197F1F7000008952B
:10063000CF93DF93FC018491EF012196882321F071
:100640000E940F03FE01F7CFDF91CF910895CF9362
:10065000DF93EC018991882319F00E940F03FACFF0
:10066000DF91CF910895579A249A239A229A209A3B
:10067000219A289829988FEF9BE60197F1F700C0FF
:10068000000080E30E94E3028FEF93E20197F1F70D
:1006900000C0000080E30E94E3028DED90E001972E
:1006A000F1F780E30E94E30286E69EE00197F1F70E
:1006B000000088E20E94E30286E69EE00197F1F7DF
:1006C000000088E20E94FE0280E80E94FE0281E0B3
:1006D0000E94FE028FEF9FE80197F1F700C0000033
:1006E0008CE00E94FE028FE00C94FE0286E69EE003
:1006F0000197F1F700000895AA1BBB1B51E107C049
:10070000AA1FBB1FA617B70710F0A61BB70B881FA1
:10071000991F5A95A9F780959095BC01CD01089530
:10072000DC0101C06D9341505040E0F70895AEE008
:10073000B0E0EDE9F3E00C9446060D891E8986E0F1
:100740008C831A8309838FEF9FE79E838D839E019D
:10075000275E3F4FCE0101966F89788DA9010E94D7
:10076000BB032F813885020F131FF80110822E96CC
:10077000E4E00C946206ABE0B0E0E1ECF3E00C9452
:1007800038063C012B015A01FC0117821682838135
:1007900081FD03C06FEF7FEFC6C19AE0892E1E0175
:1007A0000894211C311CF3012381F20123FD859162
:1007B00023FF81912F01882309F4B2C1853239F4D6
:1007C00023FD859123FF81912F01853229F490E04B
:1007D000B3010E94AE05E7CF982FFF24EE249924A1
:1007E000FFE1FF15D0F09B3269F09C3228F4903283
:1007F00059F0933291F40EC09D3249F0903369F470
:1008000041E024C052E0F52A84E0F82A28C098E0AC
:10081000F92A25C0E0E1FE2A22C0F7FC29C0892F71
:1008200080538A3070F4F6FE05C0989C902C1124F9
:10083000980E15C0E89CE02C1124E80EF0E2FF2A87
:100840000EC09E3229F4F6FC6BC140E4F42A07C0C6
:100850009C3619F450E8F52A02C0983649F4F201A2
:1008600023FD959123FF91912F01992309F0B8CF92
:10087000892F8554833018F08052833038F444E057
:1008800050E0A40EB51E5FE359830FC0933631F0DC
:10089000933779F0933509F056C020C0F501808177
:1008A000898342E050E0A40EB51E610101E010E032
:1008B00012C0F501C080D180F6FC03C06FEF7FEF5E
:1008C00002C0692D70E042E050E0A40EB51EC601E2
:1008D0000E94A3058C015FE7F52214C0F501C080DA
:1008E000D180F6FC03C06FEF7FEF02C0692D70E08E
:1008F00042E050E0A40EB51EC6010E9498058C018E
:1009000050E8F52AF3FE07C01AC080E290E0B30178
:100910000E94AE05EA948E2D90E008171907A8F3FF
:100920000EC0F601F7FC8591F7FE81916F0190E012
:10093000B3010E94AE05E110EA9401501040011588
:10094000110579F7EAC0943611F0993669F5F7FE8A
:1009500008C0F501208131814281538184E090E01B
:100960000AC0F501808191819C01442737FD4095A3
:10097000542F82E090E0A80EB91E9FE6F92257FF9F
:1009800009C050954095309521953F4F4F4F5F4F8F
:10099000E0E8FE2ACA01B901A1012AE030E00E9484
:1009A000DA05D82ED21840C0953729F41F2D1F7EA6
:1009B0002AE030E01DC01F2D197F9F3661F090376F
:1009C00020F4983509F0ACC00FC0903739F0983753
:1009D00009F0A6C004C028E030E00AC0106114FD90
:1009E000146020E130E004C014FD166020E132E024
:1009F00017FF08C0F501608171818281938144E015
:100A000050E008C0F50180819181BC0180E090E058
:100A100042E050E0A40EB51EA1010E94DA05D82ED6
:100A2000D2188FE7F82EF122F6FE0BC05EEFF5220A
:100A3000D91438F4F4FE07C0F2FC05C08FEEF8229A
:100A400002C01D2D01C0192DF4FE0DC0FE01ED0DDB
:100A5000F11D8081803319F499EEF92208C01F5FDF
:100A6000F2FE05C003C08F2D867809F01F5F0F2DA1
:100A7000F3FC14C0F0FE0FC01E1510F09D2C0BC02F
:100A80009D2C9E0C911A1E2D06C080E290E0B301B1
:100A90000E94AE051F5F1E15C0F304C01E1510F4A2
:100AA000E11A01C0EE2404FF0FC080E390E0B3011F
:100AB0000E94AE0502FF1DC001FD03C088E790E063
:100AC0000EC088E590E00BC0802F867891F001FF82
:100AD00002C08BE201C080E2F7FC8DE290E0B3013E
:100AE0000E94AE0506C080E390E0B3010E94AE050F
:100AF0009A94D914C0F3DA94F101ED0DF11D8081BF
:100B000090E0B3010E94AE05DD20A9F706C080E2A7
:100B100090E0B3010E94AE05EA94EE20C1F743CE07
:100B2000F30166817781CB012B96E2E10C945406A8
:100B3000FC010590615070400110D8F780959095A8
:100B40008E0F9F1F0895FC016150704001900110AD
:100B5000D8F7809590958E0F9F1F08950F931F9340
:100B6000CF93DF938C01EB018B8181FF1BC082FF50
:100B70000DC02E813F818C819D812817390764F437
:100B8000E881F9810193F983E88306C0E885F98556
:100B9000802F0995892B31F48E819F8101969F8347
:100BA0008E8302C00FEF1FEFC801DF91CF911F911D
:100BB0000F910895FA01AA27283051F1203181F1CF
:100BC000E8946F936E7F6E5F7F4F8F4F9F4FAF4F55
:100BD000B1E03ED0B4E03CD0670F781F891F9A1F68
:100BE000A11D680F791F8A1F911DA11D6A0F711D1C
:100BF000811D911DA11D20D009F468943F912AE028
:100C0000269F11243019305D3193DEF6CF0108950F
:100C1000462F4770405D4193B3E00FD0C9F7F6CF40
:100C2000462F4F70405D4A3318F0495D31FD405208
:100C3000419302D0A9F7EACFB4E0A695979587959E
:100C400077956795BA95C9F700976105710508957D
:100C50009B01AC010A2E0694579547953795279529
:100C6000BA95C9F7620F731F841F951FA01D0895C1
:100C70002F923F924F925F926F927F928F929F92AC
:100C8000AF92BF92CF92DF92EF92FF920F931F939A
:100C9000CF93DF93CDB7DEB7CA1BDB0B0FB6F8944B
:100CA000DEBF0FBECDBF09942A88398848885F848B
:100CB0006E847D848C849B84AA84B984C884DF80FC
:100CC000EE80FD800C811B81AA81B981CE0FD11DE0
:100CD0000FB6F894DEBF0FBECDBFED010895F894B6
:020CE000FFCF44
:100CE20025643A25643A25640002030402030400E1
:00000001FF
